:020000040000FA
:1000000000300020AD020000B5020000B702000081
:10001000B9020000BB020000BD02000000000000A9
:1000200000000000000000000000000015020000B9
:10003000C10200000000000051020000C5020000E3
:10004000B5060000C7020000F50C00003D080000E6
:1000500055080000C70200007D040000C702000030
:10006000C7020000C7020000C7020000C70200006C
:10007000C7020000C7020000C7020000C70200005C
:10008000C702000005070000C7020000C702000009
:10009000C7020000C7020000C7020000C70200003C
:1000A000C7020000C7020000C7020000C70200002C
:1000B000C7020000C70200000000000000000000AE
:1000C000C7020000C7020000C7020000C70200000C
:1000D000C7020000C7020000C702000000000000C5
:1000E0000000000000000000000000000000000010
:1000F0000000000000000000000000000000000000
:1001000000000000000000000000000000000000EF
:1001100000000000000000000000000000000000DF
:1001200000000000000000000000000000000000CF
:1001300000000000000000000000000000000000BF
:1001400000000000000000000000000000000000AF
:10015000000000000000000000000000000000009F
:10016000000000000000000000000000000000008F
:10017000000000000000000000000000000000007F
:10018000000000000000000000000000000000006F
:10019000000000000000000000000000000000005F
:1001A000000000000000000000000000000000004F
:1001B000000000000000000000000000000000003F
:1001C000000000000000000000000000000000002F
:1001D000000000000000000000000000000000001F
:1001E000000000000000000000000000000000000F
:1001F00000000000000000000000000000000000FF
:10020000DFF80CD000F0CEF800480047911C000049
:1002100000300020244B19680868B0E8F04F80F3E4
:100220000988BFF36F8F4FF0000080F3118870478B
:10023000000000000548006880F3088862B661B6D7
:10024000BFF34F8FBFF36F8F00DF0000000000008F
:10025000EFF30980BFF36F8F134B1A681EF0100F76
:1002600008BF20ED108A20E9F04F106008B44FF06D
:10027000400080F31188BFF34F8FBFF36F8F02F000
:10028000FDFD4FF0000080F3118808BC1968086874
:10029000B0E8F04F1EF0100F08BFB0EC108A80F3EA
:1002A0000988BFF36F8F704704000020064880471D
:1002B00006480047FEE7FEE7FEE7FEE7FEE7FEE74B
:1002C000FEE7FEE7FEE7FEE7790800000102000016
:1002D00000487047B8F2010040EA01039B0703D0D1
:1002E00009E008C9121F08C0042AFAD203E011F875
:1002F000013B00F8013B521EF9D27047D2B201E037
:1003000000F8012B491EFBD270470022F6E710B51A
:1003100013460A4604461946FFF7F0FF204610BD73
:10032000421C10F8011B0029FBD1801A70470346BC
:1003300011F8012B00F8012B002AF9D1184670475B
:100340002DE9F05F0546002092469B46884606460A
:10035000814640241BE0284641464746224600F09D
:1003600042F853465A46C01A914110D311461846D6
:10037000224600F029F82D1A67EB01084F46224665
:100380000120002100F020F817EB00094E41201E4B
:10039000A4F10104DFDC484631462A464346BDE865
:1003A000F09F0000064C074D06E0E06840F00103B6
:1003B00094E8070098471034AC42F6D3FFF724FFC7
:1003C000BCF20100DCF20100202A04DB203A00FA32
:1003D00002F1002070479140C2F1200320FA03F39C
:1003E000194390407047202A04DB203A21FA02F09A
:1003F0000021704721FA02F3D040C2F1200291405F
:1004000008431946704770B503460020C3F307211F
:10041000DAB2A1290ED3A3290CD8A12A0AD3A2F1BA
:10042000A104A1F1A105C5EB051606EB451504EBEA
:10043000450022E0A9290ED1A12A0CD3A2F1A104E2
:10044000A1F1A905C5EB051606EB451504EB45041E
:1004500004F58D7011E0B0290FD3F7290DD8A12A2A
:100460000BD3A2F1A104A1F1B005C5EB051606EB73
:10047000451504EB450404F5BC7070BD2DE9F04F43
:1004800089B04FF00008002008904FF4807007906A
:100490000126002413E0079801F04CFE48B100BF8C
:1004A00081480068304020B1079801F035FE48EAE5
:1004B000060876000798001D80B20790641C082C7F
:1004C000E9D34FF4BE7001F035FE50B14FF4BE7069
:1004D00001F022FE48F0004808AA0121002001F0A6
:1004E00001FE08F0FF0000B3012600241BE006EA2D
:1004F0000800B0B100BF6D4850F82400C0F30420DC
:10050000074600BF694850F82400C0F30140814607
:10051000204600F099FF054615B149463846A847E0
:1005200000BF7600641C082CE1D308F000400028CE
:100530007ED0002006900590002505E04FF0FF30AA
:1005400004A941F825006D1C002DF7D000BF002044
:10055000069000246FE05648005D0390039820F059
:10056000C00753480057401C002863D004A93846F0
:1005700001F0BEFB00285DD003984FEA901A384680
:1005800000F06AFF814600F05FFF0290029810B908
:10059000BAF1030F4BD1BAF1030F11D1394605A8B7
:1005A0000246CB0801F0070112F803C04FF0010E1C
:1005B0000EFA01FE4CEA0E0C02F803C000BF00BFA9
:1005C00000BF00BF4FF0A041084600F5E06151F8C0
:1005D0002710C1F3014900BF08A9384601F088FB84
:1005E0008346BBF1000F02D0B9F1020F05D0BBF179
:1005F000000F1BD1B9F1030F18D1BAF1030F0FD1BE
:10060000B9F1020F01D1032000E002200190384629
:10061000019901F00BFD0698401CC0B2069000BF86
:10062000029818B151463846029A904700BF00E040
:1006300036E000BF641C042C8DD3069858B3012704
:1006400003AA0121002001F04DFD00250AE003A8C6
:1006500050F8250008A951F82510884201D000273C
:1006600002E06D1C002DF2D000BF17B100200690F3
:1006700010E000250CE003A850F8250008A941F877
:10068000250005A850F8250004A941F825006D1C97
:10069000002DF0D000BF069800287FF458AF00BFAF
:1006A00009B0BDE8F08F0000046300401065004011
:1006B000CC06002010B54FF4807001F024FB60B12F
:1006C0004FF4807001F028FB012001F02FFB012086
:1006D0000B494870002000F0C5FE4FF4827001F015
:1006E00012FB58B14FF4827001F016FB022001F0AA
:1006F0001DFB01200249887000F0B4FE10BD00000F
:10070000680600202DE9F0414FF4A071204801F067
:1007100037FF002400BF00BFEFF3118007464020E1
:1007200000F0C3FB00BF3D4600BF1A480068064604
:100730004FF48071164801F023FF4FF48271144882
:1007400001F025FF48B14FF48271114801F018FF04
:1007500011480068401C1049086002F0BFFB0E49B8
:10076000096806EB01610F1A02E002F0BDFB0443C9
:10077000381EA7F10107F8D124B14FF08050074986
:10078000086040BF284600F090FBBDE8F081000003
:1007900000100140041501400000002004ED00E0BD
:1007A00010B500BF0348007808B900F0B5FA00BFE3
:1007B00010BD0000880F00202DE9F047074688464D
:1007C0001646C24607EB47011B4800EBC109D9F8A2
:1007D000140020B1012811D0022826D11EE048467D
:1007E00000F0D2FA0546B54201D2002405E03446B5
:1007F00032465146484600F00EFB18E0484600F0ED
:10080000C3FA0546B54201D2284600E03046044608
:1008100022465146484600F0FEFA08E0324651466C
:10082000484600F0BFFA044601E0002400BF00BFC4
:100830002046BDE8F0870000A00F002010B5034C53
:100840002146034801F0BEF910BD0000F406002067
:100850000030004010B5034C21464FF0402001F01D
:10086000B1F910BD1807002001480249086070471F
:100870000090D0034400002010B501F033F828B1F7
:1008800082480088C0F304208149086001F054F8D0
:1008900010B180488049486701F066F830B17B4864
:1008A000E0380068C0F342307C49086001F086F807
:1008B00028B17B48006820F080707949086001F019
:1008C00095F848B10020774908604FF08041C1F8A1
:1008D00010017249091F086001F0B2F818B1032035
:1008E0006E496431086001F0C3F868B105206E49B3
:1008F000086001206C497831086000206A4908319D
:1009000008603F20091F086001F0CAF8002855D090
:100910005E48E0300068654908605C48E430006883
:10092000091D08605948E8300068091D08605748EB
:10093000EC300068091D08605448F0300068091D5B
:1009400008605248F4300068091D08604F48F830CC
:1009500000685649203108604C48FC300068091D89
:10096000086053480068091D08605148001D006870
:10097000091D08604E4808300068091D08604C4891
:100980000C300068091D086049481030006847496C
:1009900040310860464814300068091D086044482A
:1009A00018300068091D086041481C300068091DA6
:1009B00008603F4820300068091D086000F068FFAB
:1009C00030B13248CC38006800F04F003949086037
:1009D00033487438006840F4700031497439086055
:1009E00000BF00BF00BFBFF34F8F00BF00BF00BFFD
:1009F00000BF00BF00BFBFF36F8F00BF00BF00BFCD
:100A00002D48006800F00100E0B301202B49086088
:100A100000BF2B4800680028FBD02748006820F062
:100A200001004FF01021C1F80C0200BF24480068FB
:100A30000028FBD000202149086000BF2048006842
:100A40000028FBD000BF00BF00BF00BF00BFBFF346
:100A50004F8F00BF00BF00BF1148F038006800F49E
:100A6000E06018490843001D0D49F039086000BFD7
:100A700000BF00BFBFF34F8F00BF00BF00BF00BF6C
:100A800000BFFDE7FFE7FFF7EFFE10BD24030010F6
:100A9000403501400DF0ADBA00C007403C050040B4
:100AA000FCED00E00C0100401056004020C5004065
:100AB00024040010E40E00400C12001004E5014074
:100AC00000E401400000FA052DE9F8430446002740
:100AD000B846874E40F25140844208D8A02C06D335
:100AE0000025A4F1A00005EB400000EB060842F24F
:100AF000426084420AD842F21000844206D340F297
:100B00006475201A05EB400000EB060843F2D5306F
:100B100084420AD8B4F5405F07D341F2CA35A4F540
:100B2000405005EB400000EB060849F6A5708442F2
:100B30000AD8B4F59C4F07D341F67635A4F59C400E
:100B400005EB400000EB06084FF66B6084420AD8C4
:100B50004FF63060844206D34BF6C265201A05EB8F
:100B6000400000EB06084FF65E7084420BD8B4F5E7
:100B70007F4F08D94BF63A754FF60170201A05EBF6
:100B8000400000EB06084FF6E570844209D8401F8C
:100B9000844206D34BF6F675201A05EB400000EBB5
:100BA00006084FF6292084420AD84FF62C108442BA
:100BB00006D34CF2A005201A05EB400000EB060816
:100BC0004EF6640084420AD84EF61600844206D3DC
:100BD0004CF29C25201A05EB400000EB060842F67B
:100BE000CA6084420BD8B4F53A5F08D94CF23A3562
:100BF00042F68160201A05EB400000EB060844F63F
:100C0000B71084420AD844F64710844206D34CF207
:100C1000CE35201A05EB400000EB060844F6AE5036
:100C200084420AD844F67740844206D34CF2B04559
:100C3000201A05EB400000EB060843F6E040844232
:100C40000AD843F24740844206D34CF22075201A5A
:100C500005EB400000EB060844F28D7084420AD890
:100C600044F25600844206D34DF65405201A05EB93
:100C7000400000EB06086A460221404601F032FDC2
:100C80009DF801109DF8000001EB002087B241F6AD
:100C90003F60844201D14AF6BC074EF2967084420E
:100CA00001D14AF2F36742F6F070844207D342F66C
:100CB000FB70844203D847F69A10204487B24EF264
:100CC0008D70844206D3801D844203D8A4F58040F1
:100CD000B43887B24EF29470844206D3401C8442EA
:100CE00003D8A4F58040A83887B23846BDE8F88319
:100CF000278C160010B50648007F20B1044905482E
:100D000001F07EFF03E00249024801F029FE10BD18
:100D1000D40600200020004010B5124C02202061B3
:100D2000606111A0A0611349E1614FF4006121628B
:100D30000021A1626162E1620BA0A0640E49E1643E
:100D4000102121650021A1656165E1650BA1E01D10
:100D5000FFF7EDFA0AA12046FFF7E9FA2020A0717B
:100D600010BD0000880F00205465726D696E616CC3
:100D70000000000078070020780F00205254540033
:100D8000534547474552000010B501460A69CB68F4
:100D90009A4204D88C68641EE41AA01801E0D41AA0
:100DA000601E10BD2DE9F0470446894617464FF0F6
:100DB000000AE56800BFD4F81080A84503D9A8EB65
:100DC0000500461E04E0A5EB0800401CA1680E1AB1
:100DD000A068401BB04201D9304601E0A068401B2A
:100DE0000646BE4201D2304600E0384606466168FB
:100DF000481932464946FFF76FFAB244B144BF1B67
:100E00003544A068A84200D10025E560002FD2D16A
:100E10005046BDE8F0872DE9F0470446894615465F
:100E2000E668A068871BAF4208D9616888192A461E
:100E30004946FFF751FA7019E06010E0B846616862
:100E4000881942464946FFF747FAA5EB070809EB20
:100E5000070142466068FFF73FFAC4F80C80BDE81E
:100E6000F08700000FB41CB50A46521ECDE90002FF
:100E700007A9054B6A46069800F01CF8009A002165
:100E800011701CBC5DF814FB1713000002E008C8C9
:100E9000121F08C1002AFAD170477047002001E0F4
:100EA00001C1121F002AFBD17047C1B281F3118822
:100EB000704700002DE9FF4F8DB00F460546002614
:100EC00006E025280BD0DDE90F1290476D1C761C3B
:100ED00028780028F5D111B03046BDE8F08F002405
:100EE000A246A1460122EC4900E0044315F8013F67
:100EF000203B02FA03F00842F7D128782A2810D0C4
:100F00006FF02F022878A0F13001092914D80AEBDC
:100F10008A0102EB410144F0020400EB010A6D1C5E
:100F2000F0E701CF5FEA000A03D544F40054CAF1A8
:100F3000000A44F002046D1C28782E2817D115F8F9
:100F4000010F44F004042A280ED06FF02F022878F5
:100F5000A0F1300109290AD809EB890102EB41010E
:100F600000EB01096D1CF2E757F8049B6D1C287813
:100F70006C280FD006DC4C2817D068280DD06A28C2
:100F800014D104E0742810D07A280FD10DE044F475
:100F900000140AE044F4801401E044F44014697839
:100FA000814202D104F580146D1C6D1C2A786E2AD2
:100FB0001FD00CDC632A31D004DC002A8BD0582AE5
:100FC00011D1A3E0642A68D0692A0CD165E0732AA4
:100FD0002ED004DC6F2A73D0702A04D19BE0752ACE
:100FE0006FD0782A6ED01046DDE90F129047761C3C
:100FF00050E1C4F30250022806D0032809D0042887
:1010000001CF09D0066045E101CFF117C0E90061C9
:1010100040E101CF06803DE106703BE117F8040B8B
:101020008DF8000000208DF80100EB46012003E060
:1010300057F804BB4FF0FF3061074FF0000102D4B6
:101040000DE008F10101884649450FDA8045F8DBDB
:101050001BF808100029F4D108E008F101018846C6
:101060008142FADB1BF808100029F6D1DDE90F23D5
:10107000AAEB08008146214600F036F9304400EB27
:10108000080604E0DDE90F121BF8010B9047B8F1E8
:101090000108F7D221464846F7E00A21C4F302537B
:1010A0004FF0000B0891022B04D001CFC117032B86
:1010B00009D00AE0FF1D27F00707F7E8020108E062
:1010C00032E01FE020E000B2C117042B01D140B292
:1010D000C117031E71F1000307DA4FF0000CD0EBCB
:1010E0000C006CEB01012D2302E0230504D52B231A
:1010F0008DF82430012303E0E30701D02023F7E734
:10110000984658E00A2110E010210EE010204FF020
:10111000000B08900CE010214FF0000B44F0040489
:101120004FF00809089103E008214FF0000B0891E7
:10113000C4F30253022B04D001CF0021032B06D0AD
:1011400006E0FF1D27F00707F7E8020103E080B281
:10115000042B00D1C0B24FF0000823072BD5702A12
:1011600007D0DDF820C08CF0100C5CEA0B0C05D029
:101170000EE040238DF82430012308E050EA0103FB
:1011800006D030238DF824308DF825200223984690
:10119000DDF820C08CF0080C5CEA0B0C0BD150EA97
:1011A000010301D1630706D530238DF824304FF0B9
:1011B0000108A9F10109582A04D038A20B9208AA03
:1011C0000A920BE03AA2F9E75B46089AFFF7B8F8F3
:1011D0000B9B9B5C0A9A521E0A92137050EA010202
:1011E000F2D10A98ADEB000000F1200B600702D5A8
:1011F00024F4803401E04FF00109D94502DDA9EB68
:101200000B0000E0002000EB0B0141440890AAEB2A
:10121000010AE00306D4DDE90F232146504600F021
:1012200063F806444FF0000908E009A911F8090025
:10123000DDE90F12904709F10109761CC145F4DB85
:10124000E0030CD5DDE90F232146504600F04CF8B1
:10125000064404E0DDE90F1230209047761C08991F
:10126000481E08900029F5DC08E00A980A990078E1
:10127000491C0A91DDE90F129047761CBBF1000171
:10128000ABF1010BF1DC21465046DDE90F2300F004
:1012900019F806446D1C1BE6092801003031323371
:1012A00034353637383961626364656600000000A2
:1012B000303132333435363738394142434445468C
:1012C000000000002DE9F041044600251E461746A7
:1012D000880404D405E039462020B0476D1C641E04
:1012E000F9D52846BDE8F0812DE9F04104460025F6
:1012F0001E469046C80301D5302700E02027880409
:1013000004D505E041463846B0476D1C641EF9D54A
:101310002846BDE8F0814A68002A06D00A68531CB6
:101320000B6010704868401E4860704770B50446F6
:101330000D46164604A1012001F0DFF83246294689
:10134000204600F019F870BD3A4552524F523A46C5
:101350006174616C0D0A0000FEB504460E46154628
:10136000B0B2ADF80000019502946A46002144F243
:101370000100FFF7DBFFFEBD18B5012300939DF8C8
:1013800000301E4B186059609A606FF4804303442C
:1013900063B1012B19D1194BDA60DB681B88174C3C
:1013A000A3612346DB685B68E3610EE0134B1A61BF
:1013B0001B699B68114C636123461B691B88A361F1
:1013C00023461B695B68E36100BF00BF0B4B1B68D2
:1013D0000A4B5B68094B9B68084BDB68074B1B6932
:1013E000064B5B69054B9B69044BDB6972B600BF1A
:1013F0009DF80030002BFBD162B618BD3C070020E1
:101400000246002901DA002003E013680B44136050
:101410000120704730B502460B4602210EE08C00D9
:1014200042FA04F404F00F00092802DD00F1370449
:1014300001E000F13004C1F101055C550C1EA1F181
:101440000101ECD130BD00000146024850F82100F6
:10145000704700007C060020014601484056704756
:10146000AC06002070B505460DB9094C01E0084CEA
:10147000083409E0204600F0B7FB064606B904E050
:1014800028467168884700BFF4E700BF70BD0000C0
:10149000700600202DE9F34FC9B00C467849096861
:1014A000481C44AA012101F01DF99DF81001FF28F4
:1014B00002D09DF8100110B94BB0BDE8F08F704913
:1014C0000968481C44AA012101F00CF99DF810019B
:1014D000FF2802D09DF8100100B9EDE7684943AA42
:1014E0000868012101F0FEF89DF80C01FF2802D0E8
:1014F0009DF80C0100B9DFE79DF80C0108B9102038
:1015000043909DF8100140B9002503E0002149985F
:1015100041556D1C202DF9D3CEE7482103A8FEF7D5
:10152000F4FE04EBC4001F2101EAC00B04EBC4006D
:10153000C0F39A04002797E051490968081D47AA9B
:10154000042101F0CFF89DF81F010021A0FB01103C
:101550009DF81E01000409189DF81D014FEA0020A6
:1015600009189DF81C01081801904549096801F106
:10157000080047AA4FF0040101F0B4F89DF81F01DC
:101580000021A0FB01109DF81E01000409189DF820
:101590001D014FEA002009189DF81C0111EB000AFB
:1015A000D0463749096801F10C0047AA4FF0040101
:1015B00001F098F89DF81F010021A0FB01109DF893
:1015C0001E01000409189DF81D014FEA00200918AA
:1015D0009DF81C0111EB000AD1464FEA141608EBE6
:1015E0008601274A126801EB020046AA4FF0040167
:1015F00001F078F89DF81B010021A0FB01109DF877
:101600001A01000409189DF819014FEA0020091871
:101610009DF818010818489009EB06101849096848
:101620000844029004F00F050DE002994A1C084698
:10163000029245AA012101F055F89DF8141148982D
:10164000084448906D1E002DEFD19DF80C2123A871
:10165000489901F05BFB641C03A901EB47102022B1
:1016600023A9FEF739FE7F1C042FFFF465AF03A802
:1016700000EB0B0148224998FEF72EFE00BF1BE746
:101680004800002010B50446204600F085F810BD43
:1016900070B506460C461546B6F5001F00D270BD63
:1016A00022462946304601F01DF800BFF7E72DE934
:1016B000F04106460F4614464FF000080EE0F0B227
:1016C000C0F58075AC4200D2254607EB08012A46DA
:1016D000304600F0ACF8641B2E44A844002CEED138
:1016E000BDE8F08110B51E2000F0C4FC09E0052023
:1016F00000F077F800F033F8044604F0010000B978
:1017000000E0F4E700BF1E2000F0D6FC10BD7CB561
:101710001E2000F07FFC1A2000F07CFC192000F055
:1017200079FC1B240325002000902B46024601462D
:101730000190204600F042FC00BF1E2000F0BCFCDF
:101740001A2000F0B9FC192000F0B6FC32244FF446
:101750007A7114FB01F000F087FB00BF7CBD70B50F
:10176000192000F0A9FC002512E0192000F082FCED
:101770006006040E1B2000F088FC10B144F0010448
:1017800001E004F0FE04192000F096FC681CC5B2CC
:10179000082DEADB204670BD2DE9F0410446B4F582
:1017A000001F01D200BFFEE7C4F30745C4F30726BC
:1017B000E7B200F031F81E2000F05CFC202000F0C1
:1017C00010F8284600F00DF8304600F00AF83846C8
:1017D00000F007F81E2000F06FFCFFF783FFBDE864
:1017E000F08170B50546002413E0192000F042FC9A
:1017F00005FA04F000F0800018B91A2000F03AFC55
:1018000002E01A2000F058FC192000F055FC601C82
:10181000C4B2082CE9DB70BD10B51E2000F02AFC14
:101820000620FFF7DEFF1E2000F046FC10BD2DE96C
:10183000F04704460D461746B4F5001F01D200BF1D
:10184000FEE7C4F30748C4F3072904F0FF0AFFF7D3
:10185000E3FF1E2000F00EFC0220FFF7C2FF40460F
:10186000FFF7BFFF4846FFF7BCFF5046FFF7B9FF41
:10187000002604E015F8010BFFF7B3FF761CBE420B
:10188000F8D31E2000F018FCFFF72CFFBDE8F0870E
:1018900013480078062820D11148001D007800F078
:1018A0000F00D0B90E480830007800F0F000302862
:1018B00001D1012070470A480830007800F0F0009C
:1018C000402801D10120F5E705480830007800F0F4
:1018D000F000502801D10120ECE70020EAE70000E9
:1018E000E00F00F013480078062820D11148001DB1
:1018F000007800F00F00D0B90E480830007800F0F2
:10190000F000302801D1012070470A4808300078E3
:1019100000F0F000402801D10120F5E7054808302B
:10192000007800F0F000502801D10120ECE7002001
:10193000EAE70000E00F00F00A48007806280ED120
:101940000848001D007800F00F0040B90548083035
:10195000007800F0F000302801D10120704700200D
:10196000FCE70000E00F00F013480078062820D1C3
:101970001148001D007800F00F00D0B90E48083063
:10198000007800F0F000302801D1012070470A48AB
:101990000830007800F0F000402801D10120F5E780
:1019A00005480830007800F0F000502801D10120EF
:1019B000ECE70020EAE70000E00F00F00A480078BA
:1019C00006280ED10848001D007800F00F0040B92D
:1019D00005480830007800F0F000302801D10120DF
:1019E00070470020FCE70000E00F00F0134800788B
:1019F000062820D11148001D007800F00F00D0B952
:101A00000E480830007800F0F000302801D10120A5
:101A100070470A480830007800F0F000402801D1F3
:101A20000120F5E705480830007800F0F000502864
:101A300001D10120ECE70020EAE70000E00F00F010
:101A40000A48007806280ED10848001D007800F0EA
:101A50000F0040B905480830007800F0F000302849
:101A600001D1012070470020FCE70000E00F00F0EA
:101A70000A48007806280ED10848001D007800F0BA
:101A80000F0040B905480830007800F0F000302819
:101A900001D1012070470020FCE70000E00F00F0BA
:101AA0000A48007806280ED10848001D007800F08A
:101AB0000F0040B905480830007800F0F0005028C9
:101AC00001D1012070470020FCE70000E00F00F08A
:101AD00010B50446A07FFF2802D0A07F00F0F7FADF
:101AE00000206077207204F10800D4E900219047BB
:101AF00010BD70B50024192000F0DEFA002512E0B8
:101B0000192000F0B7FA6006040E1B2000F0BDFAA1
:101B100010B144F0010401E004F0FE04192000F0CB
:101B2000CBFA681CC5B2082DEADB204670BD70B543
:101B3000044644F04074002518E0002512E0192006
:101B400000F098FA04F0004018B11A2000F0B4FA3E
:101B500002E01A2000F08EFA192000F0ADFA6400BD
:101B6000681CC5B2202DEADB681CC5B2202DE4DB61
:101B700070BD00002DE9F04393B006460C46904638
:101B800099461A9F0D480E490860802C02D2202CDD
:101B900000D22024212E03D12046FEF734FC054636
:101BA00000BF294601A8FFF775FC18231A4601A9B2
:101BB000384600F01FF813B0BDE8F083AB730B009C
:101BC0004800002070B505460C464FF48C7128463D
:101BD00000F0E0FC38B14FF48C71284600F0E1FCD5
:101BE0002046FFF775FF70BD0146086808B102681E
:101BF0000A6070472DE9F04704460E46154603F18A
:101C000007084FEAD80705F107084FEAD80C00216A
:101C100039E0002034E0C1F3C70207FB016808EB9C
:101C2000D00898F8008000F0070A4FF0800929FAE0
:101C30000AF908EA0908B8F1000F10D002FB0308FE
:101C400014F8088001F0070A4FF0010909FA0AF9AF
:101C500048EA090802FB030904F809800FE002FBC7
:101C6000030814F8088001F0070A4FF0010909FA87
:101C70000AF928EA090802FB030904F80980401C54
:101C80009842C8D3491CA942C3D3BDE8F0870000DD
:101C9000002000F05FFC044600BF25463DB100BFB8
:101CA0000FA240F203212846FFF756FB00BF00BFFA
:101CB00000F026F9044600BF25463DB100BF08A24A
:101CC00040F207212846FFF747FB00BF00BF042072
:101CD00000F088F9042000F0C2F9002000F0E2FED4
:101CE0002E2E5C2E2E5C2E2E5C6D61696E2E630096
:101CF00030B502460B46D40802F00702012090409E
:101D00001D5D284030BD01464FF08040405808B16D
:101D1000012070470020FCE708B500224FF0804109
:101D20000A500958009100BF08BD00000149086031
:101D3000704700000803004000B9704700BF00BFB3
:101D400000BF00BF00BF00BF00BF00BF00BF1E49F3
:101D500009681E4A914200D130E000BF00BF00BFB9
:101D600000BF00BF00BF00BF00BF00BF00BF00BF7B
:101D700000BF00BF00BF00BF00BF00BF00BF00BF6B
:101D800000BF00BF00BF00BF00BF00BF00BF00BF5B
:101D900000BF00BF00BF00BF00BF00BF00BF00BF4B
:101DA00000BF00BF00BF00BF00BF00BF00BF00BF3B
:101DB00000BF00BF00BF00BF00BF00BF401E00D07B
:101DC000BDE700BFB9E70000440000200024F40094
:101DD00000B9704700BF00BF00BF00BF00BF00BF19
:101DE00000BF00BF00BF1E4909681E4A914200D1D2
:101DF00030E000BF00BF00BF00BF00BF00BF00BF9A
:101E000000BF00BF00BF00BF00BF00BF00BF00BFDA
:101E100000BF00BF00BF00BF00BF00BF00BF00BFCA
:101E200000BF00BF00BF00BF00BF00BF00BF00BFBA
:101E300000BF00BF00BF00BF00BF00BF00BF00BFAA
:101E400000BF00BF00BF00BF00BF00BF00BF00BF9A
:101E500000BF00BF401E00D0BDE700BFB9E70000D3
:101E6000440000200024F40000B9704700BF00BF08
:101E700000BF00BF00BF00BF00BF00BF00BF1E49C2
:101E800009681E4A914200D130E000BF00BF00BF88
:101E900000BF00BF00BF00BF00BF00BF00BF00BF4A
:101EA00000BF00BF00BF00BF00BF00BF00BF00BF3A
:101EB00000BF00BF00BF00BF00BF00BF00BF00BF2A
:101EC00000BF00BF00BF00BF00BF00BF00BF00BF1A
:101ED00000BF00BF00BF00BF00BF00BF00BF00BF0A
:101EE00000BF00BF00BF00BF00BF00BF401E00D04A
:101EF000BDE700BFB9E70000440000200024F40063
:101F000010B500241348007808B1852420E0002093
:101F10001049886048600861C86000BF00BF41097F
:101F2000890001F1E021D1F8001101228240114025
:101F300009B1012100E0002119B90721002000F0BA
:101F40000DF800BF01200449086000BF0149087076
:101F5000204610BD680600201805004070B50B46ED
:101F600001461A46002907DA5407260E104C01F0E4
:101F70000F052D1F665503E05407250E0D4C6554C3
:101F800000BF00BF00F01F02012191400A4A44092E
:101F900042F8241000BF00BF00F01F020121914051
:101FA0004209920002F1E022C2F8001100BF70BDA8
:101FB00018ED00E000E400E080E200E0F0B5DDE9CB
:101FC000054500BF4FF0A0473E4641EA420747EAB9
:101FD000830747EA042747EA054C06F5E06747F818
:101FE00020C0F0BDF0B501210A4600231C461D4665
:101FF00000BF4FF0A0473E4641EA420747EA830749
:1020000047EA042747EA054C06F5E06747F820C091
:1020100000BFF0BD1CB5044600200090034601221D
:10202000114601902046FFF7C9FF1CBD10B50A46B6
:1020300000BF4FF0A043194601F5E06353F820308C
:1020400023F4403401F5E06343F8204053F8203096
:1020500043EA024401F5E06343F8204010BD00BFAD
:102060004FF0A0410A46012303FA00F1C2F80C1513
:1020700000BF704700BF4FF0A0410A46012303FA9A
:1020800000F1C2F80C1500BF7047014600BF4FF0C9
:10209000A040024600BFD2F81005C84000F0010081
:1020A000704700BF4FF0A0410A46012303FA00F138
:1020B000C2F8081500BF704700BF4FF0A0410A46A4
:1020C000012303FA00F1C2F8081500BF704700BFF2
:1020D0004FF0A0410A46012303FA00F1C2F80815A7
:1020E00000BF704738B50B46074C24680094014682
:1020F00006E05DF82140D4F810551560121D491C0A
:10210000C4188C42F5D838BDF0F1010001460148F1
:10211000084470470060004038B504462046FFF789
:10212000F5FF002101602046FFF7F0FF00680090F6
:1021300000BF38BD10B504462046FFF7E7FF006832
:10214000012800D110BD0020FCE7000000487047C6
:102150008521000010B504460848007828B10848D9
:102160000078844201D1002010BDFEF719FB012048
:1021700002490870024804700020F5E74000002082
:10218000410000202DE9F04FADF6240D894693461D
:102190009846DDF84CA8002006904646DDF8540825
:1021A00050440590B9F1000F01D00A2000E0002052
:1021B000049000F0DDFA20B140460DF6240DBDE894
:1021C000F08FB8F1000F1FD109A8069A811806AA4E
:1021D000484600F081FB08B94046EEE75846FEF756
:1021E0009FF8074640F2C2718F4201D9084600E0CD
:1021F0003846074609A9069A88183A465946FEF70E
:102200006BF806983844069000BF06990291029830
:10221000313004990844019009A902980C180198DA
:102220000D180020039005E020202070641C039806
:10223000401C0390DDE903018842F5D3002007909C
:1022400032E00598864209D3202004F8010B04F8F7
:10225000010B04F8010B05F8010B22E0564504D2EE
:10226000DDF84808805D089005E0A6EB0A01DDF87E
:102270005008405C089021460898FFF7CBF8A41C52
:10228000202004F8010BFEF723F801680898085C89
:1022900000F03E0008B1089800E02E2005F8010B80
:1022A000761C0798401C079007981028C9D30D206A
:1022B00005F8010B0A2005F8010B202004F8010B9A
:1022C0000498433006990844069009A8069900F03E
:1022D00051FA08B9304670E700F04AFA08B13046C2
:1022E0006BE700200690059886428ED3304664E75F
:1022F0002DE9F04FADF61C0D82460F4615461C46E3
:10230000DDF840880026002006904FF0010900F01B
:102310002FFA20B100200DF61C0DBDE8F08F07A8A4
:10232000069A811806AA384600F0D6FA08B90020A5
:10233000F1E7B8F1070F70D2DFE808F00415233396
:10234000455970002846FDF7EBFF064606983044D5
:10235000B0F5006F06D207A9069A881832462946BA
:10236000FDF7BAFF73E02368069AC2F5006107AA79
:10237000DDF818C002EB0C002A46FEF773FD064696
:1023800065E0606800902368069AC2F5006107AABC
:10239000DDF818C002EB0C002A46FEF763FD064686
:1023A00055E0D4E90101CDE900012368069AC2F5A0
:1023B000006107AADDF818C002EB0C002A46FEF700
:1023C00051FD064643E0D4E902216068CDE90121D0
:1023D00000902368069AC2F5006107AADDF818C0CC
:1023E00002EB0C002A46FEF73DFD06462FE0D4E93D
:1023F0000123D4E90310CDE90023CDE902102368BD
:10240000069AC2F5006107AADDF818C002EB0C00BD
:102410002A46FEF727FD064619E017E0D4E9022315
:10242000D4E90410CDE90123CDE9031060680090E0
:102430002368069AC2F5006107AADDF818C002EB0E
:102440000C002A46FEF70EFD064600E000BF00BF66
:10245000314606A8FEF7D4FF8146DDF818B0B9F181
:10246000000F07D0BBF5006F04D807A8069900F04D
:1024700081F950E700204EE700487047F122000044
:102480002DE9F84307460C4615461E464FF0000955
:10249000C846054800962B4622464146D0F814C04F
:1024A0003846E047BDE8F8835C0700202DE9FF4788
:1024B00080460D4616461C464FF00009002700BF17
:1024C0000020CDE901400096039006483B462A468D
:1024D0000021D0F818C04046E0470746A742EFD396
:1024E000BDE8FF875C07002030B503460C46154663
:1024F0002146184600F028F830BD70B504460D4658
:1025000000231A4629462046FFF7BAFF70BDF8B5EA
:1025100005460E461446009401236A463146284675
:10252000FFF7AEFFF8BD2DE9FC4106460F46144605
:102530001D460094019502236A4639463046FFF74E
:102540009FFFBDE8FC810000014A50619161704726
:102550005C0700202DE9F041054600BF0120FFF790
:10256000F9FD04464CB9FFF7F1FD0646FFF784FF7D
:1025700007462A463146FFF7B7FF2046BDE8F081FF
:1025800008B5002242504258009200BF08BD0246E2
:10259000505870470246505808B10120704700203B
:1025A000FCE708B5002242504258009200BF08BD27
:1025B0000146D1F88004C1F88004704702465058A3
:1025C00008B1012070470020FCE708B50022425006
:1025D0004258009200BF08BDC0F808137047024679
:1025E000D2F80403084008B1012070470020FCE73E
:1025F0000122425070470146D1F88004C1F880049E
:1026000070470246505808B1012070470020FCE78F
:1026100008B5002242504258009200BF08BD014652
:1026200040F23C50405870472DE9F04705460C46B3
:1026300016469C46089F002033E000212BE000FB5B
:10264000041817F8083000221EE04FF0080808FBB5
:102650000028B04500DB19E003F00108B8F1000FD5
:102660000DD04FF001084FF0080909FB002909EBD4
:102670004909DFF838A00AEBC90909F801805B10A5
:1026800002F1010808F0FF02082ADEDB00BF01F1B9
:10269000010808F0FF01A142D1DB00F1010808F0B8
:1026A000FF00A842C9DBBDE8F087000088030020D6
:1026B0000A490968096809B9012100E0002121B12E
:1026C0004FF0FF31064A116006E004490968C96805
:1026D000C868034A41681160704700000800002084
:1026E000380000202DE9F04107460D4616461E2011
:1026F000FFF7C0FC3846FFF71AFA002403E0FFF7A3
:10270000F8F93055641CAC42F9D31E20FFF7D4FC15
:10271000BDE8F08170B505460C46E07D40B94FF448
:1027200084712846FFF751FF00BFD5F8180570BD2A
:102730004FF484712846FFF748FF00BFD5F818050D
:10274000C0B2627EE1688854607E401C607600BF43
:10275000EDE77FB504460D46164601208DF80000D2
:102760008DF8085001966846D4E9001290477FBD65
:10277000002070472DE9F04706460F464FF0010A4A
:102780004FF000083D464FF00A0900BF06EB080174
:102790002A460020FEF710F80446A0442D1B2CB951
:1027A000A9F10109B9F1000F00D101E0002DEDD12F
:1027B00000BF5046BDE8F0872DE9FF4182B00646D4
:1027C00017469846C6EB0610264901EB4035012214
:1027D00001A92846FEF75CFF9DF80C309DF8042007
:1027E00021A10320FFF79FFE9DF80C009DF8041027
:1027F00088422FD024A10320FFF77FFE002405E0AC
:1028000005EB0430FEF73EFF601CC4B21E2CF7DB64
:102810004FF47A74214614FB01F0FFF7D9FA00BF98
:1028200042463946681CFEF742FF012203A92846AA
:10283000FEF73DFF012201A92846FEF729FF18A156
:102840000320FFF75AFE9DF804201BA10320FFF789
:102850005EFE03E01CA10320FFF74FFE06B0BDE8BB
:10286000F0810000002020003A494E464F3A74653E
:102870006D7031203D2025642C20666C6167203D01
:102880002025640D0A0000003A494E464F3A666C16
:10289000617368207069632073746172740D0A003B
:1028A0003A494E464F3A666C6173682070696320FE
:1028B000646F6E650D0A00003A494E464F3A7465E2
:1028C0006D703A25640D0A003A494E464F3A7069D8
:1028D00063206F6B0D0A00002DE9F04104460E469F
:1028E000154600274FF001086CB1F01908A24FF40B
:1028F00000612368FEF7B6FA074639462846FEF718
:102900007FFD804601E0002028604046BDE8F08160
:102910005B253038645D000070B505460C464FF409
:102920008E712846FFF751FEA18AA068465CA08AF6
:10293000401CA0823046C5F81C0500BF70BD7FB5A5
:1029400004460D4600208DF800008DF80850A06860
:1029500001900020A0756846D4E9001290477FBD21
:102960002DE9FF4105460C464FF400712846FFF75C
:1029700036FE48B34FF492712846FFF71FFE18B396
:102980004FF492712846FFF720FE4FF4017128465C
:10299000FFF722FEA07E18B904212846FFF728FE83
:1029A00002208DF800002846FFF702FE0390E17D2B
:1029B0008DF80810E06801900020E07520766846E8
:1029C000D4E90012904736E004212846FFF707FEBD
:1029D000002830D04FF484712846FFF7EFFD50B344
:1029E00021462846FFF796FEE07D617E884222D18F
:1029F000207E70B1E668677E207EE0752069E06029
:102A0000002020766076324639462046FFF7A1FE48
:102A100011E0A07E18B904212846FFF7E9FD4FF424
:102A200001712846FFF7D8FD0020E075617EE2685D
:102A30002046FFF78EFE4FF48E712846FFF7BEFD4D
:102A400098B1A08AA17D884204DA21462846FFF782
:102A500063FF0AE04FF48E712846FFF7B6FDA07DB4
:102A600018B1A17D2046FFF76AFF4FF4A2712846F6
:102A7000FFF7A4FD98B14FF4A2712846FFF7A5FD1A
:102A8000A07E18B100212846FFF7B2FDE07D30B1ED
:102A90000020E075617EE2682046FFF75AFEBDE83F
:102AA000FF810000ADF51A7D00BF4FF4FA65691093
:102AB00015FB01F0FFF740F900BF0820FFF792FA7D
:102AC0000820FFF7EEFA0420FFF78CFA0420FFF746
:102AD000C6FA37A11320FFF710FD1C20FFF782FA7A
:102AE0001C20FFF7DEFA1E20FFF77CFA1E20FFF7FE
:102AF000D8FA1820FFF776FA1820FFF7D2FAFEF777
:102B000006FE80217AA8FDF700FC45F27110FDF762
:102B1000DBFF07467AA818230022394600902120BF
:102B2000FFF728F880237AAA22A10320FFF7BEFC32
:102B30007AA818231A46194600900320FFF774FD5F
:102B4000002513E000260AE005EB45001C4901EBD7
:102B5000C000825D1BA11320FFF7D9FC761C182E44
:102B6000F2DB13A11320FFF7C8FC6D1C182DE9DB65
:102B70004FF4E133144A0D210220FFF71DFE134CE0
:102B800013A10320FFF7B9FC002508E04FF4F07211
:102B900002A92046FEF77CFD04F5F0746D1CF02DB3
:102BA000F4D311A10320FFF7A8FC00BFFEE700004B
:102BB0000D0A00003A494E464F3A0D0A0000000047
:102BC0008803002025642000F02F000001E023008E
:102BD0003A494E464F3A506963205265616420532A
:102BE000746172740D0A00003A494E464F3A5069BA
:102BF00063205265616420456E640D0A0000000088
:102C00002DE9FF4105460C464FF492712846FFF727
:102C1000F8FCD8B14FF492712846FFF7F9FC022076
:102C20008DF800002846FFF7E6FC03902846FFF7E2
:102C3000F6FCC1B28DF80810E06801900020E07544
:102C400020766846D4E9001290472FE04FF488714F
:102C50002846FFF7D6FC48B34FF488712846FFF7A3
:102C6000D7FC2846FFF7DBFCC6B2E07DB0421CD1A2
:102C7000207E98B1E7682020D5F800128143C5F87E
:102C8000001200BF207EE0752069E0600020207601
:102C90003A4631462046FFF75CFD06E00020E0752D
:102CA00031462046E268FFF754FD00BF4FF4A271A1
:102CB0002846FFF7A6FC88B14FF4A2712846FFF71B
:102CC000A7FCE07D50B10020E0752846FFF7A7FC87
:102CD000C6B231462046E268FFF73BFD4FF49071E3
:102CE0002846FFF78EFC78B14FF490712846FFF725
:102CF0008FFCA07D40B100BF40F24C504059C6B29D
:102D000031462046FFF71BFEBDE8FF812DE9F74F56
:102D100088B08A461546E81DC00868430390E81D40
:102D2000C7084FF0100B002007900690089C4248FF
:102D3000006882444FF00008C146002004900590CE
:102D400075E0069848B950460AF1010A01AA012126
:102D5000FFF7C8FC9DF8040000900698401C069000
:102D6000082801D100200690009800F0800008B1EA
:102D70000BF1020B00984006000E00900799594491
:102D80002D4A1268881802AA0221FFF7ABFC9DF8B1
:102D900008109DF8090001EB0026102E01D3B34660
:102DA00045E04FF0100BC6EB0610800007904FEA8D
:102DB000890000EB960906F0030101EB88080498EE
:102DC000401C0490B0EB550F31D105F0070139B12B
:102DD00005F00701C1F1080008FA00F809FA00F946
:102DE000781E05E0C10028FA01F104F8011B401E1D
:102DF0000028F7D104F8018B781E05E0C10029FAFC
:102E000001F104F8011B401E0028F7D104F8019BD2
:102E1000059901EB47010591039A0599914200D16B
:102E200006E04FF00008C1460021049100BF88E78A
:102E300000BF0BB0BDE8F08F4800002001460A69D2
:102E4000D1E901309860D1E90103586050688842A7
:102E500001D188685060002008611068401E106031
:102E60001068704742684A6093688B609368596045
:102E70009160086103685B1C03607047124800683A
:102E800018B10120114908601DE000200F490860B9
:102E90000F480068B0FA80F0C0F11F0101EB810219
:102EA0000C4B03EB820042685268426000F108025A
:102EB0004368934202D14268526842604268D268D5
:102EC000054B1A6000BF70473C0000202C0000201A
:102ED00020000020C80500200400002001490868E7
:102EE000704700001C0000202DE9F0410027354804
:102EF000006800285AD134480068401C32490860F4
:102F0000084606688EB93148D0F80080304800681D
:102F10002E4908602E48C0F800802E480068401CEA
:102F20002C490860FFF7C4FB00BF2B4800688642AD
:102F30003BD300BF25480068006808B9012000E0C5
:102F4000002020B14FF0FF30234908602CE01F48DB
:102F50000068C068C4686568AE4202D21E48056059
:102F600022E0201DFFF76AFFA06A18B104F11800E3
:102F7000FFF764FF94F82C10012088401749096876
:102F8000084316490860E16A01EB8101144A02EB2B
:102F90008100211DFFF766FF1249E06A0968C96ACE
:102FA0008842C7D30127C5E700BF04E00E48006888
:102FB000401C0D4908600D48006800B101273846E3
:102FC000BDE8F0813C0000201C000020080000202B
:102FD0000C000020300000203800002020000020DD
:102FE000C805002004000020280000202C0000203C
:102FF0001082108210821082108210821082108241
:103000001082108210821082108210821082108230
:103010001082108210821082108210821082108220
:103020001082108210821082108210821082108210
:104E100008611082086110820861108210820861A6
:104E20001082108208611082108208611082108244
:104E30001082086110821082086110821082108234
:104E400010821082108210821082108210821082D2
:104E500010821082108210821082108210821082C2
:104E600010821082108210821082108210821082B2
:104E700010821082108210821082108210821082A2
:104E80001082108210821082108210821082108292
:104E90001082108210821082108210821082108282
:104EA00008611082108208611082108210821082C4
:104EB00010821082086110821082086110821082B4
:104EC00008611082108210820861108210821082A4
:104ED00008611082108208611082108210820861BD
:104EE0001082086110821082108210820861108284
:104EF000108210820861108208610861108210829D
:104F0000108208611082086110821082108208618C
:104F1000086110820861108210820861108210827C
:104F200010821082108210821082108210821082F1
:104F300010821082108210821082108210821082E1
:104F400010821082108210821082108210821082D1
:104F500010821082108210821082108210821082C1
:104F6000086108610861108210821082086108617E
:104F700010821082086110821082108210820861F3
:104F80000861108208611082108208610861108235
:104F90001082086110820861108210820861086125
:104FA00008611082108208611082108210820861EC
:104FB0001082108210821082108210821082108261
:104FC0001082108210821082108210821082108251
:104FD0001082108210821082108210821082108241
:104FE0001082108210821082108210821082108231
:104FF000108210821082086110820861086110829C
:105000000861108210A20861086110821082086194
:105010001082108210821082108210820861108229
:1050200010821082108210821082108210821082F0
:1050300010821082108210821082108210821082E0
:1050400010821082108210821082108210821082D0
:1050500010821082108210821082108210821082C0
:1050600010821082108210821082108210821082B0
:1050700010821082108210821082108210821082A0
:105080001082086108611082108210820861086134
:1050900010820861108210821082108208611082D2
:1050A000108208610861108210820861086108613D
:1050B00010821082108208610861108208611082DB
:1050C000086110A210821082086110821082108282
:1050D0001082086110A20861108210821082108272
:1050E00010820861086108611082086108611082FD
:1050F000086110821082086110A21082086110827B
:10510000108210821082108210821082108210820F
:1051100010821082108210821082108210821082FF
:1051200010821082108210821082108210821082EF
:1051300010821082108210821082108210821082DF
:105140001082108208611082108208411082108241
:10515000108208610861108208610861086110828C
:105160001082086108611082086110821082086153
:10517000108210820861086108610861086110826C
:1051800010821082108210821082086110821082B8
:10519000108210821082108210821082108210827F
:1051A000108210821082108210821082108210826F
:1051B000108210821082108210821082108210825F
:1051C000108210821082108210821082108210824F
:1051D00008611082108208411082108208611082DA
:1051E0001082086110825ACBA534528A086110825D
:1051F00010820861086110A21082086110820861A3
:10520000108210821082108210821082108210820E
:1052100010821082108210821082108210821082FE
:1052200010821082108210821082108210821082EE
:1052300010821082108210821082108210821082DE
:1052400010821082108210821082108210821082CE
:1052500010821082108210821082108210821082BE
:10526000108210821082086108611082108210A2E0
:105270000861108208611082108208611082086142
:1052800008611082108210820861108210821082E0
:105290000861108208411082108208611082108219
:1052A000086108611082086110A221246B4D21243D
:1052B000108208610861086110821082086108612B
:1052C00008611082108210821082086110821082A0
:1052D00010820861108208610861108210821082B9
:1052E000108210821082108210821082108210822E
:1052F000108210821082108210821082108210821E
:10530000108210821082108210821082108210820D
:1053100010821082108210821082108210821082FD
:1053200008610861108210820861108210827BEF90
:10533000BDD7C618BDF7BDD7BDF7BDF7BDD7BDF703
:10534000BDD7BDD7BDF7BDD7BDD7BDD7BDF7BDD77D
:10535000BDD7BDD7B5B6BDF7C618BDF7BDD7BDD74C
:10536000BDD773AE0861108208611082108210826E
:10537000108210821082108210821082108210829D
:10538000108210821082108210821082108210828D
:10539000108210821082108210821082108210827D
:1053A000108210821082108210821082108210826D
:1053B00008610861108210821082108210821082AF
:1053C0000861108210827BEFBDD7BDF7949229450A
:1053D0001082108210A2084108611082108210828F
:1053E000108210821082108210821082108210822D
:1053F000108210821082108210821082108210821D
:10540000108210821082108210821082108210820C
:1054100010821082108210821082108210821082FC
:1054200010821082108210821082108210821082EC
:1054300010821082108210821082108210821082DC
:10544000108210820861086110A210820861086150
:10545000108210820861108210820861108210820E
:10546000108208610861086110A208610861108259
:105470001082108210821082086108611082086117
:10548000108210820861108208616B4DA534108271
:1054900008610861108208611082086110A2086129
:1054A0001082108208610861108210820861086110
:1054B000086110A2108210820861108208610861E0
:1054C000108210821082108210821082108210824C
:1054D000108210821082108210821082108210823C
:1054E000108210821082108210821082108210822C
:1054F000108210821082108210821082108210821C
:105500001082108208611082086110828C51BDF7F0
:105510007BCF5AEB52AA5ACB52AA5ACB6B4D5AEBBD
:105520005ACB52AA52AA5AEB738E5ACB52AA52AAFB
:105530005ACB630C6B6D5ACB528A52AA5ACB5AEB98
:105540007BEFBDF77BEF086110A210820861086154
:1055500010821082108210821082108210821082BB
:1055600010821082108210821082108210821082AB
:10557000108210821082108210821082108210829B
:10558000108210821082108210821082108210828B
:10559000108208611082108208610861108208611F
:1055A00010821082108273AEBDF78C51BDF7BDD74B
:1055B000630C0861108210A21082108208611082B0
:1055C000108210821082108210821082108210824B
:1055D000108210821082108210821082108210823B
:1055E000108210821082108210821082108210822B
:1055F000108210821082108210821082108210821B
:10560000108210821082108210821082108210820A
:1056100010821082108210821082108210821082FA
:10562000108210820861108210A20861108210821C
:105630001082086152AA6B4D6B4D52AA086110820C
:1056400010820861108210A20861108239E76B4D48
:105650006B4D5AEB3186086110821082086110820E
:1056600010821082108208611082A51473AE10821D
:10567000086110821082086152AA632C6B4D52AAF5
:10568000108210821082086110820861108210A2BC
:1056900021244A491082086108611082086110A221
:1056A000108210821082108210821082108210826A
:1056B000108210821082108210821082108210825A
:1056C000108210821082108210821082108210824A
:1056D000108210821082108210821082108210823A
:1056E0000861108210A2086110A21082B5B67BEF8B
:1056F00010821082210418C318E318E3108210A24C
:1057000018E318E318E31082086118C318C32104D2
:1057100018C30861108218C3210418E318C310824B
:1057200010828410BDF70861108208611082108217
:1057300010821082108210821082108210821082D9
:1057400010821082108210821082108210821082C9
:1057500010821082108210821082108210821082B9
:1057600010821082108210821082108210821082A9
:10577000086110821082108210821082086110A2CB
:105780001082108208617BEFBDD7108239C7AD75DA
:10579000BDF7AD5539E708611082086110820861D4
:1057A0001082108210821082108210821082108269
:1057B0001082108210821082108210821082108259
:1057C0001082108210821082108210821082108249
:1057D0001082108210821082108210821082108239
:1057E0001082108210821082108210821082108229
:1057F0001082108210821082108210821082108219
:1058000010821082108210820861086110A2086163
:1058100018C39CD3BDF7A534A534BDF79CD318C3DA
:105820000861108208610861108273AEBDF7A5346B
:105830009CD3BDD7BDD7630C10820861108208616C
:10584000108208611082086152AABDF7318610A249
:105850001082086118C39CD3BDF7AD55A534BDD7E0
:1058600094B218C3108210820861108208614A49FC
:10587000B596BDD718E308611082108210820861C6
:105880001082108210821082108210821082108288
:105890001082108210821082108210821082108278
:1058A0001082108210821082108210821082108268
:1058B0001082108210821082108210821082108258
:1058C000086110820861108208610861BDF76B4DA4
:1058D00008619CF3BDD7BDF7BDD7BDF74A69A534B4
:1058E000BDD7BDD7BDD7AD7539C7BDD7BDF7BDD7FE
:1058F000BDF794B239E7BDD7BDD7BDD7BDD79CD3CF
:1059000010826B6DBDD71082086110821082086111
:1059100010821082108210821082108210821082F7
:1059200010821082108210821082108210821082E7
:1059300010821082108210821082108210821082D7
:1059400010821082108210821082108210821082C7
:1059500008611082086110824A4939C710A20841C3
:105960001082086108617BEFBDD72945086110826C
:10597000632CBDD7BDD77BCF1082108210821082DE
:105980001082108210821082108210821082108287
:105990001082108210821082108210821082108277
:1059A0001082108210821082108210821082108267
:1059B0001082108210821082108210821082108257
:1059C0001082108210821082108210821082108247
:1059D0001082108210821082108210821082108237
:1059E00010820861108208611082108208611082A2
:1059F0008C71AD754A49086108614A49AD758C7171
:105A000008610861108208616B6DBDF75AEB08618F
:105A1000086129459CD3BDD74A4910821082108263
:105A2000086110820861108284108C71086108611D
:105A3000108210828C51AD754A49086110824A4922
:105A4000B5968C7110820861086131A67BEFBDD7D5
:105A5000B596BDF718C310A21082084110820861E4
:105A600010821082108210821082108210821082A6
:105A70001082108210821082108210821082108296
:105A80001082108210821082108210821082108286
:105A90001082108210821082108210821082108276
:105AA000108210821082086110821082BDD7738E1E
:105AB00010A28C71BDF7BDF7BDD7BDD742289CD3CE
:105AC000BDF7BDD7BDF79CF33186BDD7BDD7BDF7B8
:105AD000BDD7843039C7BDD7BDF7BDD7BDD79492E8
:105AE000086173AEBDF710821082086110821082C7
:105AF0001082108210821082108210821082108216
:105B00001082108210821082108210821082108205
:105B100010821082108210821082108210821082F5
:105B200010821082108210821082108210821082E5
:105B30001082108210820861BDD7BDF7738E18C322
:105B40001082108210827BCFBDF72945108210820F
:105B500010825AEBBDF7BDD7086110820861086159
:105B600010821082108210821082108210821082A5
:105B70001082108210821082108210821082108295
:105B80001082108210821082108210821082108285
:105B90001082108210821082108210821082108275
:105BA0001082108210821082108210821082108265
:105BB0001082108210821082108210821082108255
:105BC00010820861108208611082086110824A49BF
:105BD000BDF75AEB10821082108210825AEBBDF78B
:105BE0004A491082086131A6B5B66B6D0861108212
:105BF0001082086131A6BDD7841008611082086147
:105C00001082086110822124BDD7630C10820861C4
:105C100010824A49BDD7630C10821082086110823D
:105C20005AEBBDD74A49086118E3BDD7B596630C56
:105C30009CD3BDD718E30861086110A208611082E7
:105C400010821082108210821082108210821082C4
:105C500010821082108210821082108210821082B4
:105C600010821082108210821082108210821082A4
:105C70001082108210821082108210821082108294
:105C8000086110821082108208611082B5B6738E8E
:105C900008619492BDD7BDF7BDD7BDF742289CD30C
:105CA000BDD7BDD7BDF79CF331A6B596BDF7BDD71F
:105CB000BDF7843039C7BDF7BDD7BDD7BDF78C71EF
:105CC000108273AEBDD710820861108210821082DC
:105CD0001082108210821082108210821082108234
:105CE0001082108210821082108210821082108224
:105CF0001082108210821082108210821082108214
:105D00001082108210821082108210821082108203
:105D10001082108208611082296594B2BDF7BDD748
:105D20004A69086110827BEFBDD72124086118E31E
:105D30007BEFBDD7BDF7632C108210821082086103
:105D400010821082108210821082108210821082C3
:105D500010821082108210821082108210821082B3
:105D600010821082108210821082108210821082A3
:105D70001082108210821082108210821082108293
:105D80001082108210821082108210821082108283
:105D90001082108210821082108210821082108273
:105DA00010821082108210820861108210827BEFB4
:105DB000BDD7294510820861108210822124BDD7E9
:105DC0008410108210825AEBBDD7294508611082D9
:105DD0001082108208614A4939E7108210821082CD
:105DE0001082086110825ACBB59618E31082108297
:105DF00010828430BDD7294510821082108208613C
:105E00002124BDF77BEF108210825AEB18E3086162
:105E10009CD3BDD718C310821082108210821082CA
:105E200010821082108210821082108210821082E2
:105E300010821082108210821082108210821082D2
:105E400010821082108210821082108210821082C2
:105E500010821082108210821082108210821082B2
:105E6000108210821082108210821082BDD7738E31
:105E700010828C71BDD7BDD7BDD7BDD742289CD36A
:105E8000BDD7BDD7BDD79CF331A6B596BDD7BDD77D
:105E9000BDD7843039C7BDD7BDF7BDD7BDD78C714D
:105EA000086173AEBDD72965086108610861108279
:105EB0001082108210821082108210821082108252
:105EC0001082108210821082108210821082108242
:105ED0001082108210821082108210821082108232
:105EE0001082108210821082108210821082108222
:105EF000108208611082086110821082528ABDD718
:105F0000BDF78C7118C3632CBDD710A24A49BDF7E9
:105F1000BDD794922945108210820861108210A288
:105F200010821082108210821082108210821082E1
:105F300010821082108210821082108210821082D1
:105F400010821082108210821082108210821082C1
:105F500010821082108210821082108210821082B1
:105F600010821082108210821082108210821082A1
:105F70001082108210821082108210821082108291
:105F800010820861108208610861086108619CF351
:105F90009CD30861108210821082108208619CF3E9
:105FA0009CD3086110829CD39CD308611082422844
:105FB0004A494A4910820861086110A208611082AA
:105FC0000861086110829CF38430108208610861C6
:105FD00008619CD39CD30841086110821082108212
:105FE00010829CF39CD30861108210820861108299
:105FF0009CD3BDD718C310821082108210821082E9
:106000001082108210821082108210821082108200
:1060100010821082108210821082108210821082F0
:1060200010821082108210821082108210821082E0
:1060300010821082108210821082108210821082D0
:10604000108210821082108210821082BDD7738E4F
:1060500010828C71BDD7BDD7BDD7BDD742289CD388
:10606000BDD7BDD7BDD79CF331A6B596BDD7BDD79B
:10607000BDD7843039C7BDD7BDF7BDD7BDD78C716B
:106080001082630CBDD7B5B61082108210821082C8
:106090001082108210821082108210821082108270
:1060A0001082108210821082108210821082108260
:1060B0001082108210821082108210821082108250
:1060C0001082108210821082108210821082108240
:1060D000108210820861108210821082086118E319
:1060E0007BEFBDF7BDD7A514BDD79CF3BDD7BDD7FA
:1060F0004A6910A20861108210821082086108614A
:1061000010821082108210821082108210821082FF
:1061100010821082108210821082108210821082EF
:1061200010821082108210821082108210821082DF
:1061300010821082108210821082108210821082CF
:1061400010821082108210821082108210821082BF
:1061500010821082108210821082108210821082AF
:1061600008610861108208611082108218C3BDD7CF
:106170009CD310A2086110820861084110A294B259
:10618000BDF710A21082A53494922965AD55BDF7D4
:10619000BDF7BDF7A51452AA10A2084110821082C3
:1061A0001082086139E7BDF739C708611082108293
:1061B00018C3BDF79CF3108210A208610861108219
:1061C000086194B2BDD718E3086110821082108272
:1061D0009CD3BDD718C31082108210821082108207
:1061E000108210821082108210821082108210821F
:1061F000108210821082108210821082108210820F
:1062000010821082108210821082108210821082FE
:1062100010821082108210821082108210821082EE
:10622000108210821082108210821082BDD7738E6D
:1062300010828C71BDD7BDD7BDD7BDD742289CD3A6
:10624000BDD7BDD7BDD79CF331A6B596BDD7BDD7B9
:10625000BDD7843039C7BDD7BDF7BDD7BDD78C7189
:1062600010825AEBBDF7BDD7086110820861108219
:10627000108210821082108210821082108210828E
:10628000108210821082108210821082108210827E
:10629000108210821082108210821082108210826E
:1062A000108210821082108210821082108210825E
:1062B0001082108210821082086110821082108277
:1062C00010822945A514BDD7BDD7BDF7630C108238
:1062D00010820861108208611082108208611082A9
:1062E000108210821082108210821082108210821E
:1062F000108210821082108210821082108210820E
:1063000010821082108210821082108210821082FD
:1063100010821082108210821082108210821082ED
:1063200010821082108210821082108210821082DD
:1063300010821082108210821082108210821082CD
:1063400010821082108210820861086118C3BDD7C4
:1063500094B2108210821082108210820861843000
:10636000BDD718E318C3BDF773AEB5965AEB212419
:1063700018C3528A9CD3BDD739E7108208611082B6
:10638000108210828430A514108210A20861086166
:1063900018C3BDD794B21082108208611082108297
:1063A00010828410BDF718E310A208610861108202
:1063B0009CD3BDD718C31082108210821082108225
:1063C000108210821082108210821082108210823D
:1063D000108210821082108210821082108210822D
:1063E000108210821082108210821082108210821D
:1063F000108210821082108210821082108210820D
:10640000108210821082108210821082BDD7738E8B
:1064100010828C71BDD7BDD7BDD7BDD742289CD3C4
:10642000BDD7BDD7BDD79CF331A6B596BDD7BDD7D7
:10643000BDD7843039C7BDD7BDF7BDD7BDD78C71A7
:106440001082630CBDD7B5B610820861108210822D
:1064500010821082108210821082108210821082AC
:10646000108210821082108210821082108210829C
:10647000108210821082108210821082108210828C
:10648000108210821082108210821082108210827C
:1064900010821082108210820861108210820861BE
:1064A000086121249CF3BDF7BDD7BDD7630C0861FB
:1064B0001082086110821082108210821082108275
:1064C000108210821082108210821082108210823C
:1064D000108210821082108210821082108210822C
:1064E000108210821082108210821082108210821C
:1064F000108210821082108210821082108210820C
:1065000010821082108210821082108210821082FB
:1065100010821082108210821082108210821082EB
:1065200008610861108210821082108218E3BDF7A2
:106530009CF30861108208610861108208618C7107
:10654000BDD718E318E3BDD7BDD75AEB0861108259
:10655000108210823186BDD7949210821082086119
:10656000086118E3AD755AEB108208611082108241
:1065700018E3BDD79CD31082086110821082086195
:1065800010829492BDD718C30861108210821082C5
:106590009CD3BDD718C31082108210821082108243
:1065A000108210821082108210821082108210825B
:1065B000108210821082108210821082108210824B
:1065C000108210821082108210821082108210823B
:1065D000108210821082108210821082108210822B
:1065E000108210821082108210821082BDD7738EAA
:1065F00010828C71BDD7BDD7BDD7BDD742289CD3E3
:10660000BDD7BDD7BDD79CF331A6B596BDD7BDD7F5
:10661000BDD7843039C7BDD7BDF7BDD7BDD78C71C5
:106620001082630CBDD7B59610820861108210826B
:1066300010821082108210821082108210821082CA
:1066400010821082108210821082108210821082BA
:1066500010821082108210821082108210821082AA
:10666000108210821082108210821082108210829A
:10667000108210820861108210821082086118C393
:1066800073AEBDD7BDD7A534BDD79CF3BDD7B5B6C6
:106690004228108208610861108210820861086136
:1066A000108210821082108210821082108210825A
:1066B000108210821082108210821082108210824A
:1066C000108210821082108210821082108210823A
:1066D000108210821082108210821082108210822A
:1066E000108210821082108210821082108210821A
:1066F000108210821082108210821082108210820A
:106700001082108210820861086108611082AD75E4
:106710009CD30861108210821082108210829CD358
:10672000B596086118C3BDF7BDF718C3108208619C
:106730000861108208619CD3AD75086110821082D7
:1067400010825AEBBDD72945108208611082108251
:106750000861B5969CD30861108210821082108265
:1067600008619CD3B5961082108210821082086155
:106770009CD3BDD718C31082108210821082108261
:106780001082108210821082108210821082108279
:106790001082108210821082108210821082108269
:1067A0001082108210821082108210821082108259
:1067B0001082108210821082108210821082108249
:1067C000108210821082108210821082BDD7738EC8
:1067D00010828C71BDD7BDD7BDD7BDD742289CD301
:1067E000BDD7BDD7BDD79CF331A6B596BDD7BDD714
:1067F000BDD7843039C7BDD7BDF7BDD7BDD78C71E4
:106800001082630CBDF7B596086110820861108292
:1068100010821082108210821082108210821082E8
:1068200010821082108210821082108210821082D8
:1068300010821082108210821082108210821082C8
:1068400010821082108210821082108210821082B8
:10685000108208611082086110821082528ABDD7AE
:10686000BDD794922104632CBDD718E34A69BDD7E4
:10687000BDD7949221241082086108611082108291
:106880001082108210821082108210821082108278
:106890001082108210821082108210821082108268
:1068A0001082108210821082108210821082108258
:1068B0001082108210821082108210821082108248
:1068C0001082108210821082108210821082108238
:1068D0001082108210821082108210821082108228
:1068E00010821082108208611082108210829CD364
:1068F000A514086110820861086110821082A53415
:1069000094B210A210829CD3BDF718C30861108204
:106910001082108208619492BDD718E3108208613A
:1069200010828C718C711082086110821082086153
:10693000108294B2A514108208611082086110823E
:106940001082A5349CD310820861108208611082E5
:106950009CD3BDD718C3108210821082108210827F
:106960001082108210821082108210821082108297
:106970001082108210821082108210821082108287
:106980001082108210821082108210821082108277
:106990001082108210821082108210821082108267
:1069A000108210821082108210821082BDD7738EE6
:1069B00010828C71BDD7BDD7BDD7BDD742289CD31F
:1069C000BDD7BDD7BDD79CF331A6B596BDD7BDD732
:1069D000BDD7843039C7BDD7BDF7BDD7BDD78C7102
:1069E0000861630CBDD7BDF7108210821082086168
:1069F0001082108210821082108210821082108207
:106A000010821082108210821082108210821082F6
:106A100010821082108210821082108210821082E6
:106A200010821082108210821082108210821082D6
:106A3000108210820861108229459492BDD7BDF75B
:106A400052AA108208618410BDD721040861212454
:106A50008410BDF7BDD7630C1082108210820861CC
:106A60001082108210821082108210821082108296
:106A70001082108210821082108210821082108286
:106A80001082108210821082108210821082108276
:106A90001082108210821082108210821082108266
:106AA0001082108210821082108210821082108256
:106AB0001082108210821082108210821082108246
:106AC00008611082086110820861108208617BCF22
:106AD000BDF7318610820861108210822965BDF7EA
:106AE0007BCF0861108273AEBDD729450861108243
:106AF0001082086110829CD3A5340861086110825D
:106B00003186BDD752AA10820861086110821082B6
:106B100008617BCFBDF73186108210820861108238
:106B20003186BDD773AE1082108210821082086148
:106B30009CD3BDD718C3108210821082108210829D
:106B400010821082108210821082108210821082B5
:106B500010821082108210821082108210821082A5
:106B60001082108210821082108210821082108295
:106B70001082108210821082108210821082108285
:106B8000108210821082108210821082BDD7738E04
:106B900010828C71BDD7BDD7BDD7BDD742289CD33D
:106BA000BDD7BDD7BDD79CF331A6B596BDD7BDD750
:106BB000BDD7843039C7BDD7BDF7BDD7BDD78C7120
:106BC00008616B6DBDF74A4910821082086110821E
:106BD0001082108210821082108210821082108225
:106BE0001082108210821082108210821082108215
:106BF0001082108210821082108210821082108205
:106C000010821082108210821082108210821082F4
:106C10001082086110821082BDD7BDD7841018C3BE
:106C20000861108210A27BCFBDD729451082108247
:106C300010825ACBBDD7BDF710821082086108615F
:106C400010821082108210821082108210821082B4
:106C500010821082108210821082108210821082A4
:106C60001082108210821082108210821082108294
:106C70001082108210821082108210821082108284
:106C80001082108210821082108210821082108274
:106C90001082108210821082108210821082108264
:106CA00010821082086110821082084110A2318681
:106CB000BDD773AE108210821082108273AEBDD722
:106CC00031861082086139E7BDF76B4D108208618B
:106CD0000861108239E7BDD78430086108611082ED
:106CE0007BCFA5140861108210821082108210825E
:106CF00010823186BDF77BCF086110821082086157
:106D00007BCFBDD731A60861108208611082108246
:106D100094B2BDD718C3108210821082086110820D
:106D200010821082108210821082108210821082D3
:106D300010821082108210821082108210821082C3
:106D400010821082108210821082108210821082B3
:106D500010821082108210821082108210821082A3
:106D6000086110821082086110821082BDD76B6D9D
:106D700010828C71BDD7BDD7BDD7BDF742289CD33B
:106D8000BDD7BDD7BDD7A51431A6B596BDF7BDD724
:106D9000BDD7843031A6BDF7BDD7BDD7BDF78C7147
:106DA00010827BEFBDD708611082108210821082A2
:106DB0001082108210821082108210821082108243
:106DC0001082108210821082108210821082108233
:106DD0001082108210821082108210821082108223
:106DE0001082108210821082108210821082108213
:106DF00010821082108208414A694A49084110A253
:106E00001082086108617BCFBDD7296508610861E0
:106E10005AEBB596BDF77BEF0861086110A21082AE
:106E200010821082108210821082108210821082D2
:106E300010821082108210821082108210821082C2
:106E400010821082108210821082108210821082B2
:106E500010821082108210821082108210821082A2
:106E60001082108210821082108210821082108292
:106E70001082108210821082108210821082108282
:106E8000086110820861086110821082086110A2F6
:106E900073AEBDD76B6D39E739E76B6DBDD773AE98
:106EA0000861108210821082738EBDD76B6D42080C
:106EB00031865AEBB596A53418C3108210A208612A
:106EC000A5147BCF108208610861086108611082F7
:106ED000108208617BCFB5B66B6D39E739C76B6D32
:106EE000BDD77BCF086110821082086110820861D3
:106EF0009CF3B5B62104086108610861108208613D
:106F000010821082108210821082108210821082F1
:106F100010821082108210821082108210821082E1
:106F200010821082108210821082108210821082D1
:106F300010821082108210821082108210821082C1
:106F400010A208611082086108611082BDD7738E9B
:106F500008618C71BDD7BDF7BDF7BDD74A4994B262
:106F6000BDD7BDF7BDF79CD33186B5B6BDD7BDD76C
:106F7000BDD784104208B5B6BDD7BDF7BDD78C715B
:106F8000108273AEBDD71082108208610861108232
:106F90001082108210821082108210821082108261
:106FA0001082108210821082108210821082108251
:106FB0001082108210821082108210821082108241
:106FC0001082108210821082108210821082108231
:106FD00010820861086110820861108210820861C5
:106FE0001082108208618410BDD708613186A51413
:106FF000BDD7AD7542080861108208611082086132
:1070000010821082108210821082108210821082F0
:1070100010821082108210821082108210821082E0
:1070200010821082108210821082108210821082D0
:1070300010821082108210821082108210821082C0
:1070400010821082108210821082108210821082B0
:1070500010821082108210821082108210821082A0
:107060000861108210820861108210820861084154
:10707000108273AEBDD7BDF7BDF7BDD773AE10821A
:1070800010821082086110821082738EBDD7BDF706
:10709000BDD7BDD78C51294508610861108252AA1D
:1070A000BDF731860861108210821082108208615B
:1070B00010820861086173AEBDF7BDD7BDF7BDD7BB
:1070C00073AE108210A208611082086110821082D3
:1070D00094B2BDF718C31082108210821082108201
:1070E0001082108210821082108210821082108210
:1070F0001082108210821082108210821082108200
:1071000010821082108210821082108210821082EF
:1071100010821082108210821082108210821082DF
:10712000086110821082108210820861BDD76B6DD9
:107130001082AD55BDD7BDD7BDD7BDF74A69B5964D
:10714000BDF7BDD7BDF7BDD739C7BDD7BDD7BDF7D3
:10715000BDF79CD339E7BDD7BDF7BDD7BDF7A53483
:10716000086173AEBDF708411082086110820861A2
:10717000108210821082108210821082108210827F
:10718000108210821082108210821082108210826F
:10719000108210821082108210821082108210825F
:1071A000108210821082108210821082108210824F
:1071B00010821082108208611082086110820861BA
:1071C00010821082086173AEBDF78430BDF7BDD761
:1071D0006B4D10821082108208611082086110824B
:1071E000108210821082108210821082108210820F
:1071F00010821082108210821082108210821082FF
:1072000010821082108210821082108210821082EE
:1072100010821082108210821082108210821082DE
:1072200010821082108210821082108210821082CE
:1072300010821082108210821082108210821082BE
:1072400010821082108210820861108210821082D7
:107250001082086129454A494A4929450861108236
:10726000086110820861086110A2108221244A4935
:107270004A493186108210821082108208618C7116
:107280008C7108611082086110821082086110827E
:107290000861108210A2086121044A494A49212448
:1072A00010821082084110A20861108210820861C9
:1072B000108218C310820861086108610861108299
:1072C000108210821082108210821082108210822E
:1072D000108210821082108210821082108210821E
:1072E000108210821082108210821082108210820E
:1072F00010821082108210821082108210821082FE
:10730000108210820841108208611082BDF76B6DF7
:10731000086131864A694A494A694A69086139C738
:107320004A494A49422839E708614A494A694A496B
:10733000422831A610824A494A494A494A49318677
:10734000108273AEBDF71082086110821082108225
:10735000108210821082108210821082108210829D
:10736000108210821082108210821082108210828D
:10737000108210821082108210821082108210827D
:10738000108210821082108210821082108210826D
:107390001082086110A21082108210821082108266
:1073A000086110A210827BEFBDD7BDD794B23186A1
:1073B00010820861108208410861108210821082D8
:1073C000108210821082108210821082108210822D
:1073D000108210821082108210821082108210821D
:1073E000108210821082108210821082108210820D
:1073F00010821082108210821082108210821082FD
:1074000010821082108210821082108210821082EC
:1074100010821082108210821082108210821082DC
:107420001082086108611082108210821082086147
:10743000108210820861108210820861108210820E
:107440001082108208610861086108611082108250
:107450000861086108611082086108612945BDF76B
:10746000630C086108611082086108611082108253
:107470001082086108611082086110820861086149
:1074800010821082108208610861108210A20861C7
:1074900010820861108210821082108208611082AE
:1074A000108210821082108210821082108210824C
:1074B000108210821082108210821082108210823C
:1074C000108210821082108210821082108210822C
:1074D000108210821082108210821082108210821C
:1074E000108208611082086108611082A514BDD75E
:1074F00052AA31A629452945294529454208318600
:1075000029652945294531864208296529452945A6
:10751000294531864208294529452945294531A66D
:107520005AEBBDD794B208611082086110820861DD
:1075300010821082108210821082108210821082BB
:1075400010821082108210821082108210821082AB
:10755000108210821082108210821082108210829B
:10756000108210821082108210821082108210828B
:10757000108210820861086108611082108208611F
:107580001082086110825ACBAD5552AA0861108250
:1075900008611082086110821082086110820861FF
:1075A000108210821082108210821082108210824B
:1075B000108210821082108210821082108210823B
:1075C000108210821082108210821082108210822B
:1075D000108210821082108210821082108210821B
:1075E000108210821082108210821082108210820B
:1075F00010821082108210821082108210821082FB
:10760000108208611082108210821082108208613C
:10761000086110820861108210820861108208617E
:107620000861108210A21082108210820861086125
:10763000108210A20861086110821082086110A2F5
:1076400008611082108210821082108208611082FC
:1076500010821082086110821082086110821082EC
:10766000086108611082086110821082086110A20E
:107670000861108208610861108208611082086147
:10768000108210821082108210821082108210826A
:10769000108210821082108210821082108210825A
:1076A000108210821082108210821082108210824A
:1076B000108210821082108210821082108210823A
:1076C00010821082108210821082108218E39CF3C4
:1076D000BDD7BDF7BDD7BDF7B5B6BDF7BDD7BDD7D3
:1076E000BDD7BDD7BDF7BDF7BDF7BDD7BDF7BDD77A
:1076F000BDF7BDD7BDD7BDF7BDD7BDF7BDF7BDF74A
:10770000BDD794B210A2108210820861108210823C
:1077100010821082108210821082108210821082D9
:1077200010821082108210821082108210821082C9
:1077300010821082108210821082108210821082B9
:1077400010821082108210821082108210821082A9
:1077500010820861108210821082108208611082EB
:107760001082108210820861086110821082086104
:10777000086108610861086108611082086110826F
:107780001082108210821082108210821082108269
:107790001082108210821082108210821082108259
:1077A0001082108210821082108210821082108249
:1077B0001082108210821082108210821082108239
:1077C0001082108210821082108210821082108229
:1077D0001082108210821082108210821082108219
:1077E0000861108210820861086110821082108284
:1077F000108208611082108210821082086110824B
:1078000010820841086110820861086110821082AC
:10781000108208611082086108610861108210827C
:107820001082108208611082086108611082108243
:10783000086108611082086110820861108210825C
:107840000861086110821082086110820861086175
:1078500008611082108210821082086110A20861F3
:107860001082108210821082108210821082108288
:107870001082108210821082108210821082108278
:107880001082108210821082108210821082108268
:107890001082108210821082108210821082108258
:1078A00010820861108208611082086110820861EC
:1078B00010A20861086110A208611082108208619C
